{
  "contractName": "DummyToken",
  "abi": [
    {
      "inputs": [
        {
          "internalType": "string",
          "name": "name",
          "type": "string"
        },
        {
          "internalType": "string",
          "name": "symbol",
          "type": "string"
        },
        {
          "internalType": "uint256",
          "name": "totalSupply",
          "type": "uint256"
        }
      ],
      "stateMutability": "nonpayable",
      "type": "constructor"
    },
    {
      "anonymous": false,
      "inputs": [
        {
          "indexed": true,
          "internalType": "address",
          "name": "owner",
          "type": "address"
        },
        {
          "indexed": true,
          "internalType": "address",
          "name": "spender",
          "type": "address"
        },
        {
          "indexed": false,
          "internalType": "uint256",
          "name": "value",
          "type": "uint256"
        }
      ],
      "name": "Approval",
      "type": "event"
    },
    {
      "anonymous": false,
      "inputs": [
        {
          "indexed": true,
          "internalType": "address",
          "name": "from",
          "type": "address"
        },
        {
          "indexed": true,
          "internalType": "address",
          "name": "to",
          "type": "address"
        },
        {
          "indexed": false,
          "internalType": "uint256",
          "name": "value",
          "type": "uint256"
        }
      ],
      "name": "Transfer",
      "type": "event"
    },
    {
      "inputs": [],
      "name": "_totalSupply",
      "outputs": [
        {
          "internalType": "uint256",
          "name": "",
          "type": "uint256"
        }
      ],
      "stateMutability": "view",
      "type": "function",
      "constant": true
    },
    {
      "inputs": [
        {
          "internalType": "address",
          "name": "owner",
          "type": "address"
        },
        {
          "internalType": "address",
          "name": "spender",
          "type": "address"
        }
      ],
      "name": "allowance",
      "outputs": [
        {
          "internalType": "uint256",
          "name": "",
          "type": "uint256"
        }
      ],
      "stateMutability": "view",
      "type": "function",
      "constant": true
    },
    {
      "inputs": [
        {
          "internalType": "address",
          "name": "spender",
          "type": "address"
        },
        {
          "internalType": "uint256",
          "name": "amount",
          "type": "uint256"
        }
      ],
      "name": "approve",
      "outputs": [
        {
          "internalType": "bool",
          "name": "",
          "type": "bool"
        }
      ],
      "stateMutability": "nonpayable",
      "type": "function"
    },
    {
      "inputs": [
        {
          "internalType": "address",
          "name": "account",
          "type": "address"
        }
      ],
      "name": "balanceOf",
      "outputs": [
        {
          "internalType": "uint256",
          "name": "",
          "type": "uint256"
        }
      ],
      "stateMutability": "view",
      "type": "function",
      "constant": true
    },
    {
      "inputs": [],
      "name": "decimals",
      "outputs": [
        {
          "internalType": "uint8",
          "name": "",
          "type": "uint8"
        }
      ],
      "stateMutability": "view",
      "type": "function",
      "constant": true
    },
    {
      "inputs": [
        {
          "internalType": "address",
          "name": "spender",
          "type": "address"
        },
        {
          "internalType": "uint256",
          "name": "subtractedValue",
          "type": "uint256"
        }
      ],
      "name": "decreaseAllowance",
      "outputs": [
        {
          "internalType": "bool",
          "name": "",
          "type": "bool"
        }
      ],
      "stateMutability": "nonpayable",
      "type": "function"
    },
    {
      "inputs": [
        {
          "internalType": "address",
          "name": "spender",
          "type": "address"
        },
        {
          "internalType": "uint256",
          "name": "addedValue",
          "type": "uint256"
        }
      ],
      "name": "increaseAllowance",
      "outputs": [
        {
          "internalType": "bool",
          "name": "",
          "type": "bool"
        }
      ],
      "stateMutability": "nonpayable",
      "type": "function"
    },
    {
      "inputs": [],
      "name": "name",
      "outputs": [
        {
          "internalType": "string",
          "name": "",
          "type": "string"
        }
      ],
      "stateMutability": "view",
      "type": "function",
      "constant": true
    },
    {
      "inputs": [],
      "name": "symbol",
      "outputs": [
        {
          "internalType": "string",
          "name": "",
          "type": "string"
        }
      ],
      "stateMutability": "view",
      "type": "function",
      "constant": true
    },
    {
      "inputs": [],
      "name": "totalSupply",
      "outputs": [
        {
          "internalType": "uint256",
          "name": "",
          "type": "uint256"
        }
      ],
      "stateMutability": "view",
      "type": "function",
      "constant": true
    },
    {
      "inputs": [
        {
          "internalType": "address",
          "name": "recipient",
          "type": "address"
        },
        {
          "internalType": "uint256",
          "name": "amount",
          "type": "uint256"
        }
      ],
      "name": "transfer",
      "outputs": [
        {
          "internalType": "bool",
          "name": "",
          "type": "bool"
        }
      ],
      "stateMutability": "nonpayable",
      "type": "function"
    },
    {
      "inputs": [
        {
          "internalType": "address",
          "name": "sender",
          "type": "address"
        },
        {
          "internalType": "address",
          "name": "recipient",
          "type": "address"
        },
        {
          "internalType": "uint256",
          "name": "amount",
          "type": "uint256"
        }
      ],
      "name": "transferFrom",
      "outputs": [
        {
          "internalType": "bool",
          "name": "",
          "type": "bool"
        }
      ],
      "stateMutability": "nonpayable",
      "type": "function"
    }
  ],
  "bytecode": "0x60806040523480156200001157600080fd5b5060405162000e2e38038062000e2e8339810160408190526200003491620002db565b8251839083906200004d9060039060208501906200018a565b508051620000639060049060208401906200018a565b50505060008111620000925760405162461bcd60e51b815260040162000089906200034b565b60405180910390fd5b6005819055620000a33382620000ac565b50505062000448565b6001600160a01b038216620000d55760405162461bcd60e51b8152600401620000899062000390565b620000e36000838362000185565b8060026000828254620000f79190620003d0565b90915550506001600160a01b0382166000908152602081905260408120805483929062000126908490620003d0565b90915550506040516001600160a01b038316906000907fddf252ad1be2c89b69c2b068fc378daa952ba7f163c4a11628f55a4df523b3ef906200016b908590620003c7565b60405180910390a3620001816000838362000185565b5050565b505050565b8280546200019890620003f5565b90600052602060002090601f016020900481019282620001bc576000855562000207565b82601f10620001d757805160ff191683800117855562000207565b8280016001018555821562000207579182015b8281111562000207578251825591602001919060010190620001ea565b506200021592915062000219565b5090565b5b808211156200021557600081556001016200021a565b600082601f83011262000241578081fd5b81516001600160401b03808211156200025e576200025e62000432565b6040516020601f8401601f191682018101838111838210171562000286576200028662000432565b60405283825285840181018710156200029d578485fd5b8492505b83831015620002c05785830181015182840182015291820191620002a1565b83831115620002d157848185840101525b5095945050505050565b600080600060608486031215620002f0578283fd5b83516001600160401b038082111562000307578485fd5b620003158783880162000230565b945060208601519150808211156200032b578384fd5b506200033a8682870162000230565b925050604084015190509250925092565b60208082526025908201527f746f74616c537570706c79206d7573742062652067726561746572207468616e604082015264207a65726f60d81b606082015260800190565b6020808252601f908201527f45524332303a206d696e7420746f20746865207a65726f206164647265737300604082015260600190565b90815260200190565b60008219821115620003f057634e487b7160e01b81526011600452602481fd5b500190565b6002810460018216806200040a57607f821691505b602082108114156200042c57634e487b7160e01b600052602260045260246000fd5b50919050565b634e487b7160e01b600052604160045260246000fd5b6109d680620004586000396000f3fe608060405234801561001057600080fd5b50600436106100b45760003560e01c80633eaaf86b116100715780633eaaf86b1461014757806370a082311461014f57806395d89b4114610162578063a457c2d71461016a578063a9059cbb1461017d578063dd62ed3e14610190576100b4565b806306fdde03146100b9578063095ea7b3146100d757806318160ddd146100f757806323b872dd1461010c578063313ce5671461011f5780633950935114610134575b600080fd5b6100c16101a3565b6040516100ce91906106f6565b60405180910390f35b6100ea6100e53660046106c2565b610235565b6040516100ce91906106eb565b6100ff610252565b6040516100ce919061092a565b6100ea61011a366004610687565b610258565b6101276102f1565b6040516100ce9190610933565b6100ea6101423660046106c2565b6102f6565b6100ff61034a565b6100ff61015d366004610634565b610350565b6100c161036f565b6100ea6101783660046106c2565b61037e565b6100ea61018b3660046106c2565b6103f7565b6100ff61019e366004610655565b61040b565b6060600380546101b290610965565b80601f01602080910402602001604051908101604052809291908181526020018280546101de90610965565b801561022b5780601f106102005761010080835404028352916020019161022b565b820191906000526020600020905b81548152906001019060200180831161020e57829003601f168201915b5050505050905090565b6000610249610242610436565b848461043a565b50600192915050565b60025490565b60006102658484846104ee565b6001600160a01b038416600090815260016020526040812081610286610436565b6001600160a01b03166001600160a01b03168152602001908152602001600020549050828110156102d25760405162461bcd60e51b81526004016102c990610814565b60405180910390fd5b6102e6856102de610436565b85840361043a565b506001949350505050565b601290565b6000610249610303610436565b848460016000610311610436565b6001600160a01b03908116825260208083019390935260409182016000908120918b16815292529020546103459190610941565b61043a565b60055481565b6001600160a01b0381166000908152602081905260409020545b919050565b6060600480546101b290610965565b6000806001600061038d610436565b6001600160a01b03908116825260208083019390935260409182016000908120918816815292529020549050828110156103d95760405162461bcd60e51b81526004016102c9906108e5565b6103ed6103e4610436565b8585840361043a565b5060019392505050565b6000610249610404610436565b84846104ee565b6001600160a01b03918216600090815260016020908152604080832093909416825291909152205490565b3390565b6001600160a01b0383166104605760405162461bcd60e51b81526004016102c9906108a1565b6001600160a01b0382166104865760405162461bcd60e51b81526004016102c99061078c565b6001600160a01b0380841660008181526001602090815260408083209487168084529490915290819020849055517f8c5be1e5ebec7d5bd14f71427d1e84f3dd0314c0f7b2291e5b200ac8c7c3b925906104e190859061092a565b60405180910390a3505050565b6001600160a01b0383166105145760405162461bcd60e51b81526004016102c99061085c565b6001600160a01b03821661053a5760405162461bcd60e51b81526004016102c990610749565b610545838383610618565b6001600160a01b0383166000908152602081905260409020548181101561057e5760405162461bcd60e51b81526004016102c9906107ce565b6001600160a01b038085166000908152602081905260408082208585039055918516815290812080548492906105b5908490610941565b92505081905550826001600160a01b0316846001600160a01b03167fddf252ad1be2c89b69c2b068fc378daa952ba7f163c4a11628f55a4df523b3ef846040516105ff919061092a565b60405180910390a3610612848484610618565b50505050565b505050565b80356001600160a01b038116811461036a57600080fd5b600060208284031215610645578081fd5b61064e8261061d565b9392505050565b60008060408385031215610667578081fd5b6106708361061d565b915061067e6020840161061d565b90509250929050565b60008060006060848603121561069b578081fd5b6106a48461061d565b92506106b26020850161061d565b9150604084013590509250925092565b600080604083850312156106d4578182fd5b6106dd8361061d565b946020939093013593505050565b901515815260200190565b6000602080835283518082850152825b8181101561072257858101830151858201604001528201610706565b818111156107335783604083870101525b50601f01601f1916929092016040019392505050565b60208082526023908201527f45524332303a207472616e7366657220746f20746865207a65726f206164647260408201526265737360e81b606082015260800190565b60208082526022908201527f45524332303a20617070726f766520746f20746865207a65726f206164647265604082015261737360f01b606082015260800190565b60208082526026908201527f45524332303a207472616e7366657220616d6f756e7420657863656564732062604082015265616c616e636560d01b606082015260800190565b60208082526028908201527f45524332303a207472616e7366657220616d6f756e74206578636565647320616040820152676c6c6f77616e636560c01b606082015260800190565b60208082526025908201527f45524332303a207472616e736665722066726f6d20746865207a65726f206164604082015264647265737360d81b606082015260800190565b60208082526024908201527f45524332303a20617070726f76652066726f6d20746865207a65726f206164646040820152637265737360e01b606082015260800190565b60208082526025908201527f45524332303a2064656372656173656420616c6c6f77616e63652062656c6f77604082015264207a65726f60d81b606082015260800190565b90815260200190565b60ff91909116815260200190565b6000821982111561096057634e487b7160e01b81526011600452602481fd5b500190565b60028104600182168061097957607f821691505b6020821081141561099a57634e487b7160e01b600052602260045260246000fd5b5091905056fea2646970667358221220d629c02eca5d750b09ddffdde6914241275fb5aa510915515c092f6c5074057c64736f6c63430008000033",
  "immutableReferences": {},
  "source": "// SPDX-License-Identifier: MIT\r\npragma solidity ^0.8.0;\r\n\r\nimport \"@openzeppelin/contracts/token/ERC20/ERC20.sol\";\r\n\r\ncontract DummyToken is ERC20 {\r\n    uint public _totalSupply;\r\n    constructor (\r\n        string memory name,\r\n        string memory symbol,\r\n        uint totalSupply\r\n    ) ERC20 (name, symbol) {\r\n        require(totalSupply > 0, \"totalSupply must be greater than zero\");\r\n        _totalSupply = totalSupply;\r\n        _mint(msg.sender, _totalSupply);\r\n    }\r\n}",
  "sourcePath": "E:\\Coding\\Web3\\Web3 master\\DummyToken\\contracts\\DummyToken.sol",
  "compiler": {
    "name": "solc",
    "version": "0.8.0+commit.c7dfd78e.Emscripten.clang"
  },
  "schemaVersion": "3.4.16",
  "updatedAt": "2025-01-10T10:02:27.920Z",
  "networkType": "ethereum",
  "devdoc": {
    "kind": "dev",
    "methods": {
      "allowance(address,address)": {
        "details": "See {IERC20-allowance}."
      },
      "approve(address,uint256)": {
        "details": "See {IERC20-approve}. Requirements: - `spender` cannot be the zero address."
      },
      "balanceOf(address)": {
        "details": "See {IERC20-balanceOf}."
      },
      "decimals()": {
        "details": "Returns the number of decimals used to get its user representation. For example, if `decimals` equals `2`, a balance of `505` tokens should be displayed to a user as `5.05` (`505 / 10 ** 2`). Tokens usually opt for a value of 18, imitating the relationship between Ether and Wei. This is the value {ERC20} uses, unless this function is overridden; NOTE: This information is only used for _display_ purposes: it in no way affects any of the arithmetic of the contract, including {IERC20-balanceOf} and {IERC20-transfer}."
      },
      "decreaseAllowance(address,uint256)": {
        "details": "Atomically decreases the allowance granted to `spender` by the caller. This is an alternative to {approve} that can be used as a mitigation for problems described in {IERC20-approve}. Emits an {Approval} event indicating the updated allowance. Requirements: - `spender` cannot be the zero address. - `spender` must have allowance for the caller of at least `subtractedValue`."
      },
      "increaseAllowance(address,uint256)": {
        "details": "Atomically increases the allowance granted to `spender` by the caller. This is an alternative to {approve} that can be used as a mitigation for problems described in {IERC20-approve}. Emits an {Approval} event indicating the updated allowance. Requirements: - `spender` cannot be the zero address."
      },
      "name()": {
        "details": "Returns the name of the token."
      },
      "symbol()": {
        "details": "Returns the symbol of the token, usually a shorter version of the name."
      },
      "totalSupply()": {
        "details": "See {IERC20-totalSupply}."
      },
      "transfer(address,uint256)": {
        "details": "See {IERC20-transfer}. Requirements: - `recipient` cannot be the zero address. - the caller must have a balance of at least `amount`."
      },
      "transferFrom(address,address,uint256)": {
        "details": "See {IERC20-transferFrom}. Emits an {Approval} event indicating the updated allowance. This is not required by the EIP. See the note at the beginning of {ERC20}. Requirements: - `sender` and `recipient` cannot be the zero address. - `sender` must have a balance of at least `amount`. - the caller must have allowance for ``sender``'s tokens of at least `amount`."
      }
    },
    "version": 1
  },
  "userdoc": {
    "kind": "user",
    "methods": {},
    "version": 1
  }
}