{
  "contractName": "DummyICO",
  "abi": [
    {
      "inputs": [
        {
          "internalType": "string",
          "name": "_name",
          "type": "string"
        },
        {
          "internalType": "string",
          "name": "_symbol",
          "type": "string"
        },
        {
          "internalType": "uint256",
          "name": "_totalSupply",
          "type": "uint256"
        }
      ],
      "stateMutability": "nonpayable",
      "type": "constructor"
    },
    {
      "inputs": [],
      "name": "admin",
      "outputs": [
        {
          "internalType": "address",
          "name": "",
          "type": "address"
        }
      ],
      "stateMutability": "view",
      "type": "function",
      "constant": true
    },
    {
      "inputs": [],
      "name": "availableTokens",
      "outputs": [
        {
          "internalType": "uint256",
          "name": "",
          "type": "uint256"
        }
      ],
      "stateMutability": "view",
      "type": "function",
      "constant": true
    },
    {
      "inputs": [],
      "name": "end",
      "outputs": [
        {
          "internalType": "uint256",
          "name": "",
          "type": "uint256"
        }
      ],
      "stateMutability": "view",
      "type": "function",
      "constant": true
    },
    {
      "inputs": [
        {
          "internalType": "address",
          "name": "",
          "type": "address"
        }
      ],
      "name": "investors",
      "outputs": [
        {
          "internalType": "bool",
          "name": "",
          "type": "bool"
        }
      ],
      "stateMutability": "view",
      "type": "function",
      "constant": true
    },
    {
      "inputs": [],
      "name": "maxPurchase",
      "outputs": [
        {
          "internalType": "uint256",
          "name": "",
          "type": "uint256"
        }
      ],
      "stateMutability": "view",
      "type": "function",
      "constant": true
    },
    {
      "inputs": [],
      "name": "minPurchase",
      "outputs": [
        {
          "internalType": "uint256",
          "name": "",
          "type": "uint256"
        }
      ],
      "stateMutability": "view",
      "type": "function",
      "constant": true
    },
    {
      "inputs": [],
      "name": "price",
      "outputs": [
        {
          "internalType": "uint256",
          "name": "",
          "type": "uint256"
        }
      ],
      "stateMutability": "view",
      "type": "function",
      "constant": true
    },
    {
      "inputs": [],
      "name": "released",
      "outputs": [
        {
          "internalType": "bool",
          "name": "",
          "type": "bool"
        }
      ],
      "stateMutability": "view",
      "type": "function",
      "constant": true
    },
    {
      "inputs": [
        {
          "internalType": "uint256",
          "name": "",
          "type": "uint256"
        }
      ],
      "name": "sales",
      "outputs": [
        {
          "internalType": "address",
          "name": "investor",
          "type": "address"
        },
        {
          "internalType": "uint256",
          "name": "quantity",
          "type": "uint256"
        }
      ],
      "stateMutability": "view",
      "type": "function",
      "constant": true
    },
    {
      "inputs": [],
      "name": "token",
      "outputs": [
        {
          "internalType": "address",
          "name": "",
          "type": "address"
        }
      ],
      "stateMutability": "view",
      "type": "function",
      "constant": true
    },
    {
      "inputs": [
        {
          "internalType": "uint256",
          "name": "_duration",
          "type": "uint256"
        },
        {
          "internalType": "uint256",
          "name": "_price",
          "type": "uint256"
        },
        {
          "internalType": "uint256",
          "name": "_availableTokens",
          "type": "uint256"
        },
        {
          "internalType": "uint256",
          "name": "_minPurchase",
          "type": "uint256"
        },
        {
          "internalType": "uint256",
          "name": "_maxPurchase",
          "type": "uint256"
        }
      ],
      "name": "start",
      "outputs": [],
      "stateMutability": "nonpayable",
      "type": "function"
    },
    {
      "inputs": [
        {
          "internalType": "address",
          "name": "investor",
          "type": "address"
        }
      ],
      "name": "whitelist",
      "outputs": [],
      "stateMutability": "nonpayable",
      "type": "function"
    },
    {
      "inputs": [],
      "name": "buy",
      "outputs": [],
      "stateMutability": "payable",
      "type": "function",
      "payable": true
    },
    {
      "inputs": [],
      "name": "release",
      "outputs": [],
      "stateMutability": "nonpayable",
      "type": "function"
    },
    {
      "inputs": [
        {
          "internalType": "address payable",
          "name": "to",
          "type": "address"
        },
        {
          "internalType": "uint256",
          "name": "amount",
          "type": "uint256"
        }
      ],
      "name": "withdraw",
      "outputs": [],
      "stateMutability": "payable",
      "type": "function",
      "payable": true
    }
  ],
  "bytecode": "0x60806040523480156200001157600080fd5b5060405162001e0538038062001e0583398101604081905262000034916200013c565b8282826040516200004590620000a5565b6200005393929190620001da565b604051809103906000f08015801562000070573d6000803e3d6000fd5b50600280546001600160a01b03929092166001600160a01b03199283161790556003805490911633179055506200025d915050565b610e2e8062000fd783390190565b600082601f830112620000c4578081fd5b81516001600160401b0380821115620000e157620000e162000247565b604051601f8301601f19168101602001828111828210171562000108576200010862000247565b60405282815284830160200186101562000120578384fd5b6200013383602083016020880162000214565b95945050505050565b60008060006060848603121562000151578283fd5b83516001600160401b038082111562000168578485fd5b6200017687838801620000b3565b945060208601519150808211156200018c578384fd5b506200019b86828701620000b3565b925050604084015190509250925092565b60008151808452620001c681602086016020860162000214565b601f01601f19169290920160200192915050565b600060608252620001ef6060830186620001ac565b8281036020840152620002038186620001ac565b915050826040830152949350505050565b60005b838110156200023157818101518382015260200162000217565b8381111562000241576000848401525b50505050565b634e487b7160e01b600052604160045260246000fd5b610d6a806200026d6000396000f3fe6080604052600436106100e85760003560e01c8063a035b1fe1161008a578063efbe1c1c11610059578063efbe1c1c14610226578063f3fef3a31461023b578063f851a4401461024e578063fc0c546a14610270576100e8565b8063a035b1fe146101bb578063a6f2ae3a146101d0578063b5f522f7146101d8578063d607b55b14610206576100e8565b806386d1a69f116100c657806386d1a69f1461015a5780639613252114610171578063977b055b146101865780639b19251a1461019b576100e8565b806333b5b62e146100ed57806369bb4dc2146101185780636f7bc9be1461012d575b600080fd5b3480156100f957600080fd5b50610102610285565b60405161010f9190610c8c565b60405180910390f35b34801561012457600080fd5b5061010261028b565b34801561013957600080fd5b5061014d61014836600461086e565b610291565b60405161010f9190610973565b34801561016657600080fd5b5061016f6102a6565b005b34801561017d57600080fd5b5061014d6103f5565b34801561019257600080fd5b506101026103fe565b3480156101a757600080fd5b5061016f6101b636600461086e565b610404565b3480156101c757600080fd5b50610102610455565b61016f61045b565b3480156101e457600080fd5b506101f86101f33660046108dc565b6105c2565b60405161010f92919061095a565b34801561021257600080fd5b5061016f61022136600461090c565b6105fa565b34801561023257600080fd5b5061010261077e565b61016f610249366004610891565b610784565b34801561025a57600080fd5b50610263610850565b60405161010f9190610946565b34801561027c57600080fd5b5061026361085f565b60075481565b60065481565b60016020526000908152604090205460ff1681565b6003546001600160a01b031633146102d95760405162461bcd60e51b81526004016102d090610a3d565b60405180910390fd5b600454156102f95760405162461bcd60e51b81526004016102d090610b80565b6002546001600160a01b031660005b6000548110156103e457600080828154811061033457634e487b7160e01b600052603260045260246000fd5b600091825260209091206002909102018054600182015460405163a9059cbb60e01b81529293506001600160a01b038087169363a9059cbb9361037d939216919060040161095a565b602060405180830381600087803b15801561039757600080fd5b505af11580156103ab573d6000803e3d6000fd5b505050506040513d601f19601f820116820180604052508101906103cf91906108bc565b505080806103dc90610cc1565b915050610308565b50506009805460ff19166001179055565b60095460ff1681565b60085481565b6003546001600160a01b0316331461042e5760405162461bcd60e51b81526004016102d090610a3d565b6001600160a01b03166000908152600160208190526040909120805460ff19169091179055565b60055481565b6004541561047b5760405162461bcd60e51b81526004016102d090610b80565b3360009081526001602081905260409091205460ff161515146104b05760405162461bcd60e51b81526004016102d090610b59565b6005546104bd9034610cdc565b156104da5760405162461bcd60e51b81526004016102d090610a61565b6008543410156104fc5760405162461bcd60e51b81526004016102d090610b12565b60006005543461050c9190610cad565b90506006548111156105305760405162461bcd60e51b81526004016102d0906109f0565b60408051808201909152338152602081019182526000805460018101825590805290517f290decd9548b62a8d60345a988386fc84ba6bc95484008f6362f93160ef3e563600290920291820180546001600160a01b0319166001600160a01b0390921691909117905590517f290decd9548b62a8d60345a988386fc84ba6bc95484008f6362f93160ef3e56490910155565b600081815481106105d257600080fd5b6000918252602090912060029091020180546001909101546001600160a01b03909116915082565b6003546001600160a01b031633146106245760405162461bcd60e51b81526004016102d090610a3d565b600454156106445760405162461bcd60e51b81526004016102d090610b80565b600254604080516318160ddd60e01b815290516000926001600160a01b0316916318160ddd916004808301926020929190829003018186803b15801561068957600080fd5b505afa15801561069d573d6000803e3d6000fd5b505050506040513d601f19601f820116820180604052508101906106c191906108f4565b9050600086116106e35760405162461bcd60e51b81526004016102d090610c4b565b6000841180156106f35750808411155b61070f5760405162461bcd60e51b81526004016102d090610bac565b6000831161072f5760405162461bcd60e51b81526004016102d090610acd565b60008211801561073f5750838211155b61075b5760405162461bcd60e51b81526004016102d09061097e565b6107654287610c95565b6004555060059390935560069190915560075560085550565b60045481565b6003546001600160a01b031633146107ae5760405162461bcd60e51b81526004016102d090610a3d565b600454156107ce5760405162461bcd60e51b81526004016102d090610b80565b60095460ff1615156001146107f55760405162461bcd60e51b81526004016102d090610a96565b804710156108155760405162461bcd60e51b81526004016102d090610c14565b6040516001600160a01b0383169082156108fc029083906000818181858888f1935050505015801561084b573d6000803e3d6000fd5b505050565b6003546001600160a01b031681565b6002546001600160a01b031681565b60006020828403121561087f578081fd5b813561088a81610d1c565b9392505050565b600080604083850312156108a3578081fd5b82356108ae81610d1c565b946020939093013593505050565b6000602082840312156108cd578081fd5b8151801515811461088a578182fd5b6000602082840312156108ed578081fd5b5035919050565b600060208284031215610905578081fd5b5051919050565b600080600080600060a08688031215610923578081fd5b505083359560208501359550604085013594606081013594506080013592509050565b6001600160a01b0391909116815260200190565b6001600160a01b03929092168252602082015260400190565b901515815260200190565b6020808252604c908201527f6d6178207075726368617365206d75737420626520626967676572207468616e60408201527f207a65726f2062757420657175616c206f72206c657373207468616e2061766160608201526b696c61626c65546f6b656e7360a01b608082015260a00190565b6020808252602d908201527f6861766520746f20626520657175616c206f72206c657373207468616e20617660408201526c61696c61626c65546f6b656e7360981b606082015260800190565b6020808252600a908201526937b7363c9030b236b4b760b11b604082015260600190565b6020808252818101527f6861766520746f2073656e642061206d756c7469706c65206f66207072696365604082015260600190565b6020808252601d908201527f546f6b656e206d7573742068617665206265656e2072656c6561736564000000604082015260600190565b60208082526025908201527f6d696e207075726368617365206d75737420626520626967676572207468616e604082015264207a65726f60d81b606082015260800190565b60208082526027908201527f73656e64206174206c6561737420746865206d61785075726368617365206f72604082015266103434b3b432b960c91b606082015260800190565b6020808252600d908201526c37b7363c9034b73b32b9ba37b960991b604082015260600190565b6020808252601290820152716d757374206265206e6f742061637469766560701b604082015260600190565b60208082526042908201527f617661696c616265546f6b656e73206d7573742062652067726561746572207460408201527f68616e207a65726f20616e64206c657373207468616e20746f74616c537570706060820152616c7960f01b608082015260a00190565b6020808252601d908201527f496e73756666696369656e7420636f6e74726163742062616c616e6365000000604082015260600190565b60208082526021908201527f6475726174696f6e206d75737420626520626967676572207468616e207a65726040820152606f60f81b606082015260800190565b90815260200190565b60008219821115610ca857610ca8610cf0565b500190565b600082610cbc57610cbc610d06565b500490565b6000600019821415610cd557610cd5610cf0565b5060010190565b600082610ceb57610ceb610d06565b500690565b634e487b7160e01b600052601160045260246000fd5b634e487b7160e01b600052601260045260246000fd5b6001600160a01b0381168114610d3157600080fd5b5056fea26469706673582212206f2eb42fb99504a5af794e0edfc55c1c0caa39f06da92b59615ebae33326ae6e64736f6c6343000800003360806040523480156200001157600080fd5b5060405162000e2e38038062000e2e8339810160408190526200003491620002db565b8251839083906200004d9060039060208501906200018a565b508051620000639060049060208401906200018a565b50505060008111620000925760405162461bcd60e51b815260040162000089906200034b565b60405180910390fd5b6005819055620000a33382620000ac565b50505062000448565b6001600160a01b038216620000d55760405162461bcd60e51b8152600401620000899062000390565b620000e36000838362000185565b8060026000828254620000f79190620003d0565b90915550506001600160a01b0382166000908152602081905260408120805483929062000126908490620003d0565b90915550506040516001600160a01b038316906000907fddf252ad1be2c89b69c2b068fc378daa952ba7f163c4a11628f55a4df523b3ef906200016b908590620003c7565b60405180910390a3620001816000838362000185565b5050565b505050565b8280546200019890620003f5565b90600052602060002090601f016020900481019282620001bc576000855562000207565b82601f10620001d757805160ff191683800117855562000207565b8280016001018555821562000207579182015b8281111562000207578251825591602001919060010190620001ea565b506200021592915062000219565b5090565b5b808211156200021557600081556001016200021a565b600082601f83011262000241578081fd5b81516001600160401b03808211156200025e576200025e62000432565b6040516020601f8401601f191682018101838111838210171562000286576200028662000432565b60405283825285840181018710156200029d578485fd5b8492505b83831015620002c05785830181015182840182015291820191620002a1565b83831115620002d157848185840101525b5095945050505050565b600080600060608486031215620002f0578283fd5b83516001600160401b038082111562000307578485fd5b620003158783880162000230565b945060208601519150808211156200032b578384fd5b506200033a8682870162000230565b925050604084015190509250925092565b60208082526025908201527f746f74616c537570706c79206d7573742062652067726561746572207468616e604082015264207a65726f60d81b606082015260800190565b6020808252601f908201527f45524332303a206d696e7420746f20746865207a65726f206164647265737300604082015260600190565b90815260200190565b60008219821115620003f057634e487b7160e01b81526011600452602481fd5b500190565b6002810460018216806200040a57607f821691505b602082108114156200042c57634e487b7160e01b600052602260045260246000fd5b50919050565b634e487b7160e01b600052604160045260246000fd5b6109d680620004586000396000f3fe608060405234801561001057600080fd5b50600436106100b45760003560e01c80633eaaf86b116100715780633eaaf86b1461014757806370a082311461014f57806395d89b4114610162578063a457c2d71461016a578063a9059cbb1461017d578063dd62ed3e14610190576100b4565b806306fdde03146100b9578063095ea7b3146100d757806318160ddd146100f757806323b872dd1461010c578063313ce5671461011f5780633950935114610134575b600080fd5b6100c16101a3565b6040516100ce91906106f6565b60405180910390f35b6100ea6100e53660046106c2565b610235565b6040516100ce91906106eb565b6100ff610252565b6040516100ce919061092a565b6100ea61011a366004610687565b610258565b6101276102f1565b6040516100ce9190610933565b6100ea6101423660046106c2565b6102f6565b6100ff61034a565b6100ff61015d366004610634565b610350565b6100c161036f565b6100ea6101783660046106c2565b61037e565b6100ea61018b3660046106c2565b6103f7565b6100ff61019e366004610655565b61040b565b6060600380546101b290610965565b80601f01602080910402602001604051908101604052809291908181526020018280546101de90610965565b801561022b5780601f106102005761010080835404028352916020019161022b565b820191906000526020600020905b81548152906001019060200180831161020e57829003601f168201915b5050505050905090565b6000610249610242610436565b848461043a565b50600192915050565b60025490565b60006102658484846104ee565b6001600160a01b038416600090815260016020526040812081610286610436565b6001600160a01b03166001600160a01b03168152602001908152602001600020549050828110156102d25760405162461bcd60e51b81526004016102c990610814565b60405180910390fd5b6102e6856102de610436565b85840361043a565b506001949350505050565b601290565b6000610249610303610436565b848460016000610311610436565b6001600160a01b03908116825260208083019390935260409182016000908120918b16815292529020546103459190610941565b61043a565b60055481565b6001600160a01b0381166000908152602081905260409020545b919050565b6060600480546101b290610965565b6000806001600061038d610436565b6001600160a01b03908116825260208083019390935260409182016000908120918816815292529020549050828110156103d95760405162461bcd60e51b81526004016102c9906108e5565b6103ed6103e4610436565b8585840361043a565b5060019392505050565b6000610249610404610436565b84846104ee565b6001600160a01b03918216600090815260016020908152604080832093909416825291909152205490565b3390565b6001600160a01b0383166104605760405162461bcd60e51b81526004016102c9906108a1565b6001600160a01b0382166104865760405162461bcd60e51b81526004016102c99061078c565b6001600160a01b0380841660008181526001602090815260408083209487168084529490915290819020849055517f8c5be1e5ebec7d5bd14f71427d1e84f3dd0314c0f7b2291e5b200ac8c7c3b925906104e190859061092a565b60405180910390a3505050565b6001600160a01b0383166105145760405162461bcd60e51b81526004016102c99061085c565b6001600160a01b03821661053a5760405162461bcd60e51b81526004016102c990610749565b610545838383610618565b6001600160a01b0383166000908152602081905260409020548181101561057e5760405162461bcd60e51b81526004016102c9906107ce565b6001600160a01b038085166000908152602081905260408082208585039055918516815290812080548492906105b5908490610941565b92505081905550826001600160a01b0316846001600160a01b03167fddf252ad1be2c89b69c2b068fc378daa952ba7f163c4a11628f55a4df523b3ef846040516105ff919061092a565b60405180910390a3610612848484610618565b50505050565b505050565b80356001600160a01b038116811461036a57600080fd5b600060208284031215610645578081fd5b61064e8261061d565b9392505050565b60008060408385031215610667578081fd5b6106708361061d565b915061067e6020840161061d565b90509250929050565b60008060006060848603121561069b578081fd5b6106a48461061d565b92506106b26020850161061d565b9150604084013590509250925092565b600080604083850312156106d4578182fd5b6106dd8361061d565b946020939093013593505050565b901515815260200190565b6000602080835283518082850152825b8181101561072257858101830151858201604001528201610706565b818111156107335783604083870101525b50601f01601f1916929092016040019392505050565b60208082526023908201527f45524332303a207472616e7366657220746f20746865207a65726f206164647260408201526265737360e81b606082015260800190565b60208082526022908201527f45524332303a20617070726f766520746f20746865207a65726f206164647265604082015261737360f01b606082015260800190565b60208082526026908201527f45524332303a207472616e7366657220616d6f756e7420657863656564732062604082015265616c616e636560d01b606082015260800190565b60208082526028908201527f45524332303a207472616e7366657220616d6f756e74206578636565647320616040820152676c6c6f77616e636560c01b606082015260800190565b60208082526025908201527f45524332303a207472616e736665722066726f6d20746865207a65726f206164604082015264647265737360d81b606082015260800190565b60208082526024908201527f45524332303a20617070726f76652066726f6d20746865207a65726f206164646040820152637265737360e01b606082015260800190565b60208082526025908201527f45524332303a2064656372656173656420616c6c6f77616e63652062656c6f77604082015264207a65726f60d81b606082015260800190565b90815260200190565b60ff91909116815260200190565b6000821982111561096057634e487b7160e01b81526011600452602481fd5b500190565b60028104600182168061097957607f821691505b6020821081141561099a57634e487b7160e01b600052602260045260246000fd5b5091905056fea2646970667358221220d629c02eca5d750b09ddffdde6914241275fb5aa510915515c092f6c5074057c64736f6c63430008000033",
  "immutableReferences": {},
  "source": "// SPDX-License-Identifier: MIT\r\npragma solidity ^0.8.0;\r\n\r\nimport { DummyToken } from \"./DummyToken.sol\";\r\n\r\ncontract DummyICO {\r\n    struct Sales {\r\n        address investor;\r\n        uint quantity;\r\n    }\r\n    Sales[] public sales;\r\n    mapping (address => bool) public investors;\r\n    address public token;\r\n    address public admin;\r\n    uint public end;\r\n    uint public price;\r\n    uint public availableTokens;\r\n    uint public minPurchase;\r\n    uint public maxPurchase;\r\n    bool public released;\r\n\r\n    constructor \r\n    (\r\n        string memory _name,\r\n        string memory _symbol,\r\n        uint _totalSupply\r\n    )\r\n    {\r\n        token = address(new DummyToken(\r\n            _name,\r\n            _symbol,\r\n            _totalSupply\r\n        ));\r\n        admin = msg.sender;\r\n    }\r\n\r\n    function start\r\n    (\r\n        uint _duration,\r\n        uint _price,\r\n        uint _availableTokens,\r\n        uint _minPurchase,\r\n        uint _maxPurchase\r\n    ) \r\n        external\r\n        onlyAdmin()\r\n        notActive()\r\n        {\r\n            uint totalSupply = DummyToken(token).totalSupply();\r\n            require(_duration > 0, \"duration must be bigger than zero\");\r\n            require(_availableTokens > 0 && _availableTokens <= totalSupply, \"availabeTokens must be greater than zero and less than totalSupply\");\r\n            require(_minPurchase > 0, \"min purchase must be bigger than zero\");\r\n            require(_maxPurchase > 0 && _maxPurchase <= _availableTokens, \"max purchase must be bigger than zero but equal or less than availableTokens\");\r\n            end = _duration + block.timestamp;\r\n            price = _price;\r\n            availableTokens = _availableTokens;\r\n            minPurchase = _minPurchase;\r\n            maxPurchase = _maxPurchase;\r\n    }\r\n\r\n    function whitelist (address investor) \r\n        external \r\n        onlyAdmin()\r\n        {\r\n            investors[investor] = true;\r\n    }\r\n\r\n    function buy()\r\n        external\r\n        payable\r\n        notActive()\r\n        onlyInvestors()\r\n        {\r\n            require(msg.value % price == 0, \"have to send a multiple of price\");\r\n            require(msg.value >= maxPurchase, \"send at least the maxPurchase or higher\");\r\n            uint quantity = msg.value / price;\r\n            require(quantity <= availableTokens, \"have to be equal or less than availableTokens\");\r\n            sales.push(Sales(\r\n                msg.sender,\r\n                quantity\r\n            ));\r\n    }\r\n\r\n    function release() \r\n        external\r\n        onlyAdmin()\r\n        notActive(){\r\n            DummyToken tokenInstance = DummyToken(token);\r\n            for (uint i = 0; i < sales.length; i++) {\r\n                Sales storage sale = sales[i];\r\n                tokenInstance.transfer(sale.investor, sale.quantity);\r\n            }\r\n            released = true;\r\n    }\r\n\r\n    function withdraw\r\n    (\r\n        address payable to,\r\n        uint amount\r\n    )\r\n        external\r\n        payable\r\n        onlyAdmin()\r\n        notActive()\r\n        tokenReleased()\r\n        {\r\n            require(address(this).balance >= amount, \"Insufficient contract balance\");\r\n            payable(to).transfer(amount);\r\n    }\r\n        \r\n\r\n    modifier onlyAdmin() {\r\n        require(msg.sender == admin, \"only admin\");\r\n        _;\r\n    }\r\n\r\n    modifier notActive () {\r\n        require(end == 0, \"must be not active\");\r\n        _;\r\n    }\r\n\r\n    modifier active() {\r\n        require(end > 0 && block.timestamp < end && availableTokens > 0, \"must be acitve\");\r\n        _;\r\n    }\r\n\r\n    modifier onlyInvestors() {\r\n        require(investors[msg.sender] == true, \"only investor\");\r\n        _;\r\n    }\r\n\r\n    modifier tokenNotReleased() {\r\n        require(released == false, \"Token must not have been released\");\r\n        _;\r\n    }\r\n\r\n    modifier tokenReleased() {\r\n        require(released == true, \"Token must have been released\");\r\n        _;\r\n    }\r\n}",
  "sourcePath": "E:\\Coding\\Web3\\Web3 master\\DummyToken\\contracts\\ICO.sol",
  "compiler": {
    "name": "solc",
    "version": "0.8.0+commit.c7dfd78e.Emscripten.clang"
  },
  "schemaVersion": "3.4.16",
  "updatedAt": "2025-01-10T08:05:30.353Z",
  "networkType": "ethereum",
  "devdoc": {
    "kind": "dev",
    "methods": {},
    "version": 1
  },
  "userdoc": {
    "kind": "user",
    "methods": {},
    "version": 1
  }
}