{
  "contractName": "DummyICO",
  "abi": [
    {
      "inputs": [
        {
          "internalType": "string",
          "name": "_name",
          "type": "string"
        },
        {
          "internalType": "string",
          "name": "_symbol",
          "type": "string"
        },
        {
          "internalType": "uint256",
          "name": "_totalSupply",
          "type": "uint256"
        }
      ],
      "stateMutability": "nonpayable",
      "type": "constructor"
    },
    {
      "inputs": [],
      "name": "admin",
      "outputs": [
        {
          "internalType": "address",
          "name": "",
          "type": "address"
        }
      ],
      "stateMutability": "view",
      "type": "function"
    },
    {
      "inputs": [],
      "name": "availableTokens",
      "outputs": [
        {
          "internalType": "uint256",
          "name": "",
          "type": "uint256"
        }
      ],
      "stateMutability": "view",
      "type": "function"
    },
    {
      "inputs": [],
      "name": "end",
      "outputs": [
        {
          "internalType": "uint256",
          "name": "",
          "type": "uint256"
        }
      ],
      "stateMutability": "view",
      "type": "function"
    },
    {
      "inputs": [
        {
          "internalType": "address",
          "name": "",
          "type": "address"
        }
      ],
      "name": "investors",
      "outputs": [
        {
          "internalType": "bool",
          "name": "",
          "type": "bool"
        }
      ],
      "stateMutability": "view",
      "type": "function"
    },
    {
      "inputs": [],
      "name": "maxPurchase",
      "outputs": [
        {
          "internalType": "uint256",
          "name": "",
          "type": "uint256"
        }
      ],
      "stateMutability": "view",
      "type": "function"
    },
    {
      "inputs": [],
      "name": "minPurchase",
      "outputs": [
        {
          "internalType": "uint256",
          "name": "",
          "type": "uint256"
        }
      ],
      "stateMutability": "view",
      "type": "function"
    },
    {
      "inputs": [],
      "name": "price",
      "outputs": [
        {
          "internalType": "uint256",
          "name": "",
          "type": "uint256"
        }
      ],
      "stateMutability": "view",
      "type": "function"
    },
    {
      "inputs": [],
      "name": "released",
      "outputs": [
        {
          "internalType": "bool",
          "name": "",
          "type": "bool"
        }
      ],
      "stateMutability": "view",
      "type": "function"
    },
    {
      "inputs": [
        {
          "internalType": "uint256",
          "name": "",
          "type": "uint256"
        }
      ],
      "name": "sales",
      "outputs": [
        {
          "internalType": "address",
          "name": "investor",
          "type": "address"
        },
        {
          "internalType": "uint256",
          "name": "quantity",
          "type": "uint256"
        }
      ],
      "stateMutability": "view",
      "type": "function"
    },
    {
      "inputs": [],
      "name": "token",
      "outputs": [
        {
          "internalType": "address",
          "name": "",
          "type": "address"
        }
      ],
      "stateMutability": "view",
      "type": "function"
    },
    {
      "inputs": [
        {
          "internalType": "uint256",
          "name": "_duration",
          "type": "uint256"
        },
        {
          "internalType": "uint256",
          "name": "_price",
          "type": "uint256"
        },
        {
          "internalType": "uint256",
          "name": "_availableTokens",
          "type": "uint256"
        },
        {
          "internalType": "uint256",
          "name": "_minPurchase",
          "type": "uint256"
        },
        {
          "internalType": "uint256",
          "name": "_maxPurchase",
          "type": "uint256"
        }
      ],
      "name": "start",
      "outputs": [],
      "stateMutability": "nonpayable",
      "type": "function"
    },
    {
      "inputs": [
        {
          "internalType": "address",
          "name": "investor",
          "type": "address"
        }
      ],
      "name": "whitelist",
      "outputs": [],
      "stateMutability": "nonpayable",
      "type": "function"
    },
    {
      "inputs": [],
      "name": "buy",
      "outputs": [],
      "stateMutability": "payable",
      "type": "function"
    },
    {
      "inputs": [],
      "name": "release",
      "outputs": [],
      "stateMutability": "nonpayable",
      "type": "function"
    },
    {
      "inputs": [
        {
          "internalType": "address payable",
          "name": "to",
          "type": "address"
        },
        {
          "internalType": "uint256",
          "name": "amount",
          "type": "uint256"
        }
      ],
      "name": "withdraw",
      "outputs": [],
      "stateMutability": "payable",
      "type": "function"
    }
  ],
  "bytecode": "0x60806040523480156200001157600080fd5b50604051620036d4380380620036d4833981810160405281019062000037919062000195565b8282826040516200004890620000fe565b62000056939291906200026f565b604051809103906000f08015801562000073573d6000803e3d6000fd5b50600260006101000a81548173ffffffffffffffffffffffffffffffffffffffff021916908373ffffffffffffffffffffffffffffffffffffffff16021790555033600360006101000a81548173ffffffffffffffffffffffffffffffffffffffff021916908373ffffffffffffffffffffffffffffffffffffffff160217905550505050620003d7565b611aa98062001c2b83390190565b6000620001236200011d84620002ee565b620002ba565b9050828152602081018484840111156200013c57600080fd5b6200014984828562000347565b509392505050565b600082601f8301126200016357600080fd5b8151620001758482602086016200010c565b91505092915050565b6000815190506200018f81620003bd565b92915050565b600080600060608486031215620001ab57600080fd5b600084015167ffffffffffffffff811115620001c657600080fd5b620001d48682870162000151565b935050602084015167ffffffffffffffff811115620001f257600080fd5b620002008682870162000151565b925050604062000213868287016200017e565b9150509250925092565b60006200022a8262000321565b6200023681856200032c565b93506200024881856020860162000347565b6200025381620003ac565b840191505092915050565b62000269816200033d565b82525050565b600060608201905081810360008301526200028b81866200021d565b90508181036020830152620002a181856200021d565b9050620002b260408301846200025e565b949350505050565b6000604051905081810181811067ffffffffffffffff82111715620002e457620002e36200037d565b5b8060405250919050565b600067ffffffffffffffff8211156200030c576200030b6200037d565b5b601f19601f8301169050602081019050919050565b600081519050919050565b600082825260208201905092915050565b6000819050919050565b60005b83811015620003675780820151818401526020810190506200034a565b8381111562000377576000848401525b50505050565b7f4e487b7100000000000000000000000000000000000000000000000000000000600052604160045260246000fd5b6000601f19601f8301169050919050565b620003c8816200033d565b8114620003d457600080fd5b50565b61184480620003e76000396000f3fe6080604052600436106100e85760003560e01c8063a035b1fe1161008a578063efbe1c1c11610059578063efbe1c1c146102b2578063f3fef3a3146102dd578063f851a440146102f9578063fc0c546a14610324576100e8565b8063a035b1fe14610216578063a6f2ae3a14610241578063b5f522f71461024b578063d607b55b14610289576100e8565b806386d1a69f116100c657806386d1a69f146101805780639613252114610197578063977b055b146101c25780639b19251a146101ed576100e8565b806333b5b62e146100ed57806369bb4dc2146101185780636f7bc9be14610143575b600080fd5b3480156100f957600080fd5b5061010261034f565b60405161010f91906115a4565b60405180910390f35b34801561012457600080fd5b5061012d610355565b60405161013a91906115a4565b60405180910390f35b34801561014f57600080fd5b5061016a60048036038101906101659190610e71565b61035b565b6040516101779190611429565b60405180910390f35b34801561018c57600080fd5b5061019561037b565b005b3480156101a357600080fd5b506101ac6105a0565b6040516101b99190611429565b60405180910390f35b3480156101ce57600080fd5b506101d76105b3565b6040516101e491906115a4565b60405180910390f35b3480156101f957600080fd5b50610214600480360381019061020f9190610e71565b6105b9565b005b34801561022257600080fd5b5061022b6106a3565b60405161023891906115a4565b60405180910390f35b6102496106a9565b005b34801561025757600080fd5b50610272600480360381019061026d9190610eff565b610919565b604051610280929190611400565b60405180910390f35b34801561029557600080fd5b506102b060048036038101906102ab9190610f51565b61096d565b005b3480156102be57600080fd5b506102c7610c40565b6040516102d491906115a4565b60405180910390f35b6102f760048036038101906102f29190610e9a565b610c46565b005b34801561030557600080fd5b5061030e610dbc565b60405161031b91906113e5565b60405180910390f35b34801561033057600080fd5b50610339610de2565b60405161034691906113e5565b60405180910390f35b60075481565b60065481565b60016020528060005260406000206000915054906101000a900460ff1681565b600360009054906101000a900473ffffffffffffffffffffffffffffffffffffffff1673ffffffffffffffffffffffffffffffffffffffff163373ffffffffffffffffffffffffffffffffffffffff161461040b576040517f08c379a000000000000000000000000000000000000000000000000000000000815260040161040290611484565b60405180910390fd5b600060045414610450576040517f08c379a000000000000000000000000000000000000000000000000000000000815260040161044790611544565b60405180910390fd5b6000600260009054906101000a900473ffffffffffffffffffffffffffffffffffffffff16905060005b60008054905081101561059c5760008082815481106104c2577f4e487b7100000000000000000000000000000000000000000000000000000000600052603260045260246000fd5b906000526020600020906002020190508273ffffffffffffffffffffffffffffffffffffffff1663a9059cbb8260000160009054906101000a900473ffffffffffffffffffffffffffffffffffffffff1683600101546040518363ffffffff1660e01b8152600401610535929190611400565b602060405180830381600087803b15801561054f57600080fd5b505af1158015610563573d6000803e3d6000fd5b505050506040513d601f19601f820116820180604052508101906105879190610ed6565b50508080610594906116da565b91505061047a565b5050565b600960009054906101000a900460ff1681565b60085481565b600360009054906101000a900473ffffffffffffffffffffffffffffffffffffffff1673ffffffffffffffffffffffffffffffffffffffff163373ffffffffffffffffffffffffffffffffffffffff1614610649576040517f08c379a000000000000000000000000000000000000000000000000000000000815260040161064090611484565b60405180910390fd5b60018060008373ffffffffffffffffffffffffffffffffffffffff1673ffffffffffffffffffffffffffffffffffffffff16815260200190815260200160002060006101000a81548160ff02191690831515021790555050565b60055481565b6000600454146106ee576040517f08c379a00000000000000000000000000000000000000000000000000000000081526004016106e590611544565b60405180910390fd5b60011515600160003373ffffffffffffffffffffffffffffffffffffffff1673ffffffffffffffffffffffffffffffffffffffff16815260200190815260200160002060009054906101000a900460ff16151514610781576040517f08c379a000000000000000000000000000000000000000000000000000000000815260040161077890611524565b60405180910390fd5b6000600554346107919190611723565b146107d1576040517f08c379a00000000000000000000000000000000000000000000000000000000081526004016107c8906114a4565b60405180910390fd5b600854341015610816576040517f08c379a000000000000000000000000000000000000000000000000000000000815260040161080d90611504565b60405180910390fd5b6000346005546108269190611626565b905060065481111561086d576040517f08c379a000000000000000000000000000000000000000000000000000000000815260040161086490611464565b60405180910390fd5b600060405180604001604052803373ffffffffffffffffffffffffffffffffffffffff16815260200183815250908060018154018082558091505060019003906000526020600020906002020160009091909190915060008201518160000160006101000a81548173ffffffffffffffffffffffffffffffffffffffff021916908373ffffffffffffffffffffffffffffffffffffffff16021790555060208201518160010155505050565b6000818154811061092957600080fd5b90600052602060002090600202016000915090508060000160009054906101000a900473ffffffffffffffffffffffffffffffffffffffff16908060010154905082565b600360009054906101000a900473ffffffffffffffffffffffffffffffffffffffff1673ffffffffffffffffffffffffffffffffffffffff163373ffffffffffffffffffffffffffffffffffffffff16146109fd576040517f08c379a00000000000000000000000000000000000000000000000000000000081526004016109f490611484565b60405180910390fd5b600060045414610a42576040517f08c379a0000000000000000000000000000000000000000000000000000000008152600401610a3990611544565b60405180910390fd5b6000600260009054906101000a900473ffffffffffffffffffffffffffffffffffffffff1673ffffffffffffffffffffffffffffffffffffffff166318160ddd6040518163ffffffff1660e01b815260040160206040518083038186803b158015610aac57600080fd5b505afa158015610ac0573d6000803e3d6000fd5b505050506040513d601f19601f82011682018060405250810190610ae49190610f28565b905060008611610b29576040517f08c379a0000000000000000000000000000000000000000000000000000000008152600401610b2090611584565b60405180910390fd5b600084118015610b395750808411155b610b78576040517f08c379a0000000000000000000000000000000000000000000000000000000008152600401610b6f90611564565b60405180910390fd5b60008311610bbb576040517f08c379a0000000000000000000000000000000000000000000000000000000008152600401610bb2906114e4565b60405180910390fd5b600082118015610bcb5750838211155b610c0a576040517f08c379a0000000000000000000000000000000000000000000000000000000008152600401610c0190611444565b60405180910390fd5b4286610c1691906115d0565b60048190555084600581905550836006819055508260078190555081600881905550505050505050565b60045481565b600360009054906101000a900473ffffffffffffffffffffffffffffffffffffffff1673ffffffffffffffffffffffffffffffffffffffff163373ffffffffffffffffffffffffffffffffffffffff1614610cd6576040517f08c379a0000000000000000000000000000000000000000000000000000000008152600401610ccd90611484565b60405180910390fd5b600060045414610d1b576040517f08c379a0000000000000000000000000000000000000000000000000000000008152600401610d1290611544565b60405180910390fd5b60011515600960009054906101000a900460ff16151514610d71576040517f08c379a0000000000000000000000000000000000000000000000000000000008152600401610d68906114c4565b60405180910390fd5b8173ffffffffffffffffffffffffffffffffffffffff166108fc829081150290604051600060405180830381858888f19350505050158015610db7573d6000803e3d6000fd5b505050565b600360009054906101000a900473ffffffffffffffffffffffffffffffffffffffff1681565b600260009054906101000a900473ffffffffffffffffffffffffffffffffffffffff1681565b600081359050610e17816117b2565b92915050565b600081359050610e2c816117c9565b92915050565b600081519050610e41816117e0565b92915050565b600081359050610e56816117f7565b92915050565b600081519050610e6b816117f7565b92915050565b600060208284031215610e8357600080fd5b6000610e9184828501610e08565b91505092915050565b60008060408385031215610ead57600080fd5b6000610ebb85828601610e1d565b9250506020610ecc85828601610e47565b9150509250929050565b600060208284031215610ee857600080fd5b6000610ef684828501610e32565b91505092915050565b600060208284031215610f1157600080fd5b6000610f1f84828501610e47565b91505092915050565b600060208284031215610f3a57600080fd5b6000610f4884828501610e5c565b91505092915050565b600080600080600060a08688031215610f6957600080fd5b6000610f7788828901610e47565b9550506020610f8888828901610e47565b9450506040610f9988828901610e47565b9350506060610faa88828901610e47565b9250506080610fbb88828901610e47565b9150509295509295909350565b610fd181611680565b82525050565b610fe0816116a4565b82525050565b6000610ff3604c836115bf565b91507f6d6178207075726368617365206d75737420626520626967676572207468616e60008301527f207a65726f2062757420657175616c206f72206c657373207468616e2061766160208301527f696c61626c65546f6b656e7300000000000000000000000000000000000000006040830152606082019050919050565b600061107f602d836115bf565b91507f6861766520746f20626520657175616c206f72206c657373207468616e20617660008301527f61696c61626c65546f6b656e73000000000000000000000000000000000000006020830152604082019050919050565b60006110e5600a836115bf565b91507f6f6e6c792061646d696e000000000000000000000000000000000000000000006000830152602082019050919050565b60006111256020836115bf565b91507f6861766520746f2073656e642061206d756c7469706c65206f662070726963656000830152602082019050919050565b6000611165601d836115bf565b91507f546f6b656e206d7573742068617665206265656e2072656c65617365640000006000830152602082019050919050565b60006111a56025836115bf565b91507f6d696e207075726368617365206d75737420626520626967676572207468616e60008301527f207a65726f0000000000000000000000000000000000000000000000000000006020830152604082019050919050565b600061120b6027836115bf565b91507f73656e64206174206c6561737420746865206d61785075726368617365206f7260008301527f20686967686572000000000000000000000000000000000000000000000000006020830152604082019050919050565b6000611271600d836115bf565b91507f6f6e6c7920696e766573746f72000000000000000000000000000000000000006000830152602082019050919050565b60006112b16012836115bf565b91507f6d757374206265206e6f742061637469766500000000000000000000000000006000830152602082019050919050565b60006112f16042836115bf565b91507f617661696c616265546f6b656e73206d7573742062652067726561746572207460008301527f68616e207a65726f20616e64206c657373207468616e20746f74616c5375707060208301527f6c790000000000000000000000000000000000000000000000000000000000006040830152606082019050919050565b600061137d6021836115bf565b91507f6475726174696f6e206d75737420626520626967676572207468616e207a657260008301527f6f000000000000000000000000000000000000000000000000000000000000006020830152604082019050919050565b6113df816116d0565b82525050565b60006020820190506113fa6000830184610fc8565b92915050565b60006040820190506114156000830185610fc8565b61142260208301846113d6565b9392505050565b600060208201905061143e6000830184610fd7565b92915050565b6000602082019050818103600083015261145d81610fe6565b9050919050565b6000602082019050818103600083015261147d81611072565b9050919050565b6000602082019050818103600083015261149d816110d8565b9050919050565b600060208201905081810360008301526114bd81611118565b9050919050565b600060208201905081810360008301526114dd81611158565b9050919050565b600060208201905081810360008301526114fd81611198565b9050919050565b6000602082019050818103600083015261151d816111fe565b9050919050565b6000602082019050818103600083015261153d81611264565b9050919050565b6000602082019050818103600083015261155d816112a4565b9050919050565b6000602082019050818103600083015261157d816112e4565b9050919050565b6000602082019050818103600083015261159d81611370565b9050919050565b60006020820190506115b960008301846113d6565b92915050565b600082825260208201905092915050565b60006115db826116d0565b91506115e6836116d0565b9250827fffffffffffffffffffffffffffffffffffffffffffffffffffffffffffffffff0382111561161b5761161a611754565b5b828201905092915050565b6000611631826116d0565b915061163c836116d0565b9250817fffffffffffffffffffffffffffffffffffffffffffffffffffffffffffffffff048311821515161561167557611674611754565b5b828202905092915050565b600061168b826116b0565b9050919050565b600061169d826116b0565b9050919050565b60008115159050919050565b600073ffffffffffffffffffffffffffffffffffffffff82169050919050565b6000819050919050565b60006116e5826116d0565b91507fffffffffffffffffffffffffffffffffffffffffffffffffffffffffffffffff82141561171857611717611754565b5b600182019050919050565b600061172e826116d0565b9150611739836116d0565b92508261174957611748611783565b5b828206905092915050565b7f4e487b7100000000000000000000000000000000000000000000000000000000600052601160045260246000fd5b7f4e487b7100000000000000000000000000000000000000000000000000000000600052601260045260246000fd5b6117bb81611680565b81146117c657600080fd5b50565b6117d281611692565b81146117dd57600080fd5b50565b6117e9816116a4565b81146117f457600080fd5b50565b611800816116d0565b811461180b57600080fd5b5056fea26469706673582212203c5a1fb9e645fa83405bacc549a6b211b9e3f9311382520c66ee75a5e2357e7564736f6c6343000800003360806040523480156200001157600080fd5b5060405162001aa938038062001aa9833981810160405281019062000037919062000393565b82828160039080519060200190620000519291906200025a565b5080600490805190602001906200006a9291906200025a565b50505060008111620000b3576040517f08c379a0000000000000000000000000000000000000000000000000000000008152600401620000aa90620004d6565b60405180910390fd5b80600581905550620000ce33600554620000d760201b60201c565b50505062000729565b600073ffffffffffffffffffffffffffffffffffffffff168273ffffffffffffffffffffffffffffffffffffffff1614156200014a576040517f08c379a00000000000000000000000000000000000000000000000000000000081526004016200014190620004f8565b60405180910390fd5b6200015e600083836200025060201b60201c565b8060026000828254620001729190620005af565b92505081905550806000808473ffffffffffffffffffffffffffffffffffffffff1673ffffffffffffffffffffffffffffffffffffffff1681526020019081526020016000206000828254620001c99190620005af565b925050819055508173ffffffffffffffffffffffffffffffffffffffff16600073ffffffffffffffffffffffffffffffffffffffff167fddf252ad1be2c89b69c2b068fc378daa952ba7f163c4a11628f55a4df523b3ef836040516200023091906200051a565b60405180910390a36200024c600083836200025560201b60201c565b5050565b505050565b505050565b82805462000268906200064c565b90600052602060002090601f0160209004810192826200028c5760008555620002d8565b82601f10620002a757805160ff1916838001178555620002d8565b82800160010185558215620002d8579182015b82811115620002d7578251825591602001919060010190620002ba565b5b509050620002e79190620002eb565b5090565b5b8082111562000306576000816000905550600101620002ec565b5090565b6000620003216200031b846200056b565b62000537565b9050828152602081018484840111156200033a57600080fd5b6200034784828562000616565b509392505050565b600082601f8301126200036157600080fd5b8151620003738482602086016200030a565b91505092915050565b6000815190506200038d816200070f565b92915050565b600080600060608486031215620003a957600080fd5b600084015167ffffffffffffffff811115620003c457600080fd5b620003d2868287016200034f565b935050602084015167ffffffffffffffff811115620003f057600080fd5b620003fe868287016200034f565b925050604062000411868287016200037c565b9150509250925092565b60006200042a6025836200059e565b91507f746f74616c537570706c79206d7573742062652067726561746572207468616e60008301527f207a65726f0000000000000000000000000000000000000000000000000000006020830152604082019050919050565b600062000492601f836200059e565b91507f45524332303a206d696e7420746f20746865207a65726f2061646472657373006000830152602082019050919050565b620004d0816200060c565b82525050565b60006020820190508181036000830152620004f1816200041b565b9050919050565b60006020820190508181036000830152620005138162000483565b9050919050565b6000602082019050620005316000830184620004c5565b92915050565b6000604051905081810181811067ffffffffffffffff82111715620005615762000560620006e0565b5b8060405250919050565b600067ffffffffffffffff821115620005895762000588620006e0565b5b601f19601f8301169050602081019050919050565b600082825260208201905092915050565b6000620005bc826200060c565b9150620005c9836200060c565b9250827fffffffffffffffffffffffffffffffffffffffffffffffffffffffffffffffff0382111562000601576200060062000682565b5b828201905092915050565b6000819050919050565b60005b838110156200063657808201518184015260208101905062000619565b8381111562000646576000848401525b50505050565b600060028204905060018216806200066557607f821691505b602082108114156200067c576200067b620006b1565b5b50919050565b7f4e487b7100000000000000000000000000000000000000000000000000000000600052601160045260246000fd5b7f4e487b7100000000000000000000000000000000000000000000000000000000600052602260045260246000fd5b7f4e487b7100000000000000000000000000000000000000000000000000000000600052604160045260246000fd5b6200071a816200060c565b81146200072657600080fd5b50565b61137080620007396000396000f3fe608060405234801561001057600080fd5b50600436106100b45760003560e01c80633eaaf86b116100715780633eaaf86b146101a357806370a08231146101c157806395d89b41146101f1578063a457c2d71461020f578063a9059cbb1461023f578063dd62ed3e1461026f576100b4565b806306fdde03146100b9578063095ea7b3146100d757806318160ddd1461010757806323b872dd14610125578063313ce567146101555780633950935114610173575b600080fd5b6100c161029f565b6040516100ce9190611039565b60405180910390f35b6100f160048036038101906100ec9190610cb2565b610331565b6040516100fe919061101e565b60405180910390f35b61010f61034f565b60405161011c919061113b565b60405180910390f35b61013f600480360381019061013a9190610c63565b610359565b60405161014c919061101e565b60405180910390f35b61015d610451565b60405161016a9190611156565b60405180910390f35b61018d60048036038101906101889190610cb2565b61045a565b60405161019a919061101e565b60405180910390f35b6101ab610506565b6040516101b8919061113b565b60405180910390f35b6101db60048036038101906101d69190610bfe565b61050c565b6040516101e8919061113b565b60405180910390f35b6101f9610554565b6040516102069190611039565b60405180910390f35b61022960048036038101906102249190610cb2565b6105e6565b604051610236919061101e565b60405180910390f35b61025960048036038101906102549190610cb2565b6106d1565b604051610266919061101e565b60405180910390f35b61028960048036038101906102849190610c27565b6106ef565b604051610296919061113b565b60405180910390f35b6060600380546102ae9061126b565b80601f01602080910402602001604051908101604052809291908181526020018280546102da9061126b565b80156103275780601f106102fc57610100808354040283529160200191610327565b820191906000526020600020905b81548152906001019060200180831161030a57829003601f168201915b5050505050905090565b600061034561033e610776565b848461077e565b6001905092915050565b6000600254905090565b6000610366848484610949565b6000600160008673ffffffffffffffffffffffffffffffffffffffff1673ffffffffffffffffffffffffffffffffffffffff16815260200190815260200160002060006103b1610776565b73ffffffffffffffffffffffffffffffffffffffff1673ffffffffffffffffffffffffffffffffffffffff16815260200190815260200160002054905082811015610431576040517f08c379a0000000000000000000000000000000000000000000000000000000008152600401610428906110bb565b60405180910390fd5b6104458561043d610776565b85840361077e565b60019150509392505050565b60006012905090565b60006104fc610467610776565b848460016000610475610776565b73ffffffffffffffffffffffffffffffffffffffff1673ffffffffffffffffffffffffffffffffffffffff16815260200190815260200160002060008873ffffffffffffffffffffffffffffffffffffffff1673ffffffffffffffffffffffffffffffffffffffff168152602001908152602001600020546104f7919061118d565b61077e565b6001905092915050565b60055481565b60008060008373ffffffffffffffffffffffffffffffffffffffff1673ffffffffffffffffffffffffffffffffffffffff168152602001908152602001600020549050919050565b6060600480546105639061126b565b80601f016020809104026020016040519081016040528092919081815260200182805461058f9061126b565b80156105dc5780601f106105b1576101008083540402835291602001916105dc565b820191906000526020600020905b8154815290600101906020018083116105bf57829003601f168201915b5050505050905090565b600080600160006105f5610776565b73ffffffffffffffffffffffffffffffffffffffff1673ffffffffffffffffffffffffffffffffffffffff16815260200190815260200160002060008573ffffffffffffffffffffffffffffffffffffffff1673ffffffffffffffffffffffffffffffffffffffff168152602001908152602001600020549050828110156106b2576040517f08c379a00000000000000000000000000000000000000000000000000000000081526004016106a99061111b565b60405180910390fd5b6106c66106bd610776565b8585840361077e565b600191505092915050565b60006106e56106de610776565b8484610949565b6001905092915050565b6000600160008473ffffffffffffffffffffffffffffffffffffffff1673ffffffffffffffffffffffffffffffffffffffff16815260200190815260200160002060008373ffffffffffffffffffffffffffffffffffffffff1673ffffffffffffffffffffffffffffffffffffffff16815260200190815260200160002054905092915050565b600033905090565b600073ffffffffffffffffffffffffffffffffffffffff168373ffffffffffffffffffffffffffffffffffffffff1614156107ee576040517f08c379a00000000000000000000000000000000000000000000000000000000081526004016107e5906110fb565b60405180910390fd5b600073ffffffffffffffffffffffffffffffffffffffff168273ffffffffffffffffffffffffffffffffffffffff16141561085e576040517f08c379a00000000000000000000000000000000000000000000000000000000081526004016108559061107b565b60405180910390fd5b80600160008573ffffffffffffffffffffffffffffffffffffffff1673ffffffffffffffffffffffffffffffffffffffff16815260200190815260200160002060008473ffffffffffffffffffffffffffffffffffffffff1673ffffffffffffffffffffffffffffffffffffffff168152602001908152602001600020819055508173ffffffffffffffffffffffffffffffffffffffff168373ffffffffffffffffffffffffffffffffffffffff167f8c5be1e5ebec7d5bd14f71427d1e84f3dd0314c0f7b2291e5b200ac8c7c3b9258360405161093c919061113b565b60405180910390a3505050565b600073ffffffffffffffffffffffffffffffffffffffff168373ffffffffffffffffffffffffffffffffffffffff1614156109b9576040517f08c379a00000000000000000000000000000000000000000000000000000000081526004016109b0906110db565b60405180910390fd5b600073ffffffffffffffffffffffffffffffffffffffff168273ffffffffffffffffffffffffffffffffffffffff161415610a29576040517f08c379a0000000000000000000000000000000000000000000000000000000008152600401610a209061105b565b60405180910390fd5b610a34838383610bca565b60008060008573ffffffffffffffffffffffffffffffffffffffff1673ffffffffffffffffffffffffffffffffffffffff16815260200190815260200160002054905081811015610aba576040517f08c379a0000000000000000000000000000000000000000000000000000000008152600401610ab19061109b565b60405180910390fd5b8181036000808673ffffffffffffffffffffffffffffffffffffffff1673ffffffffffffffffffffffffffffffffffffffff16815260200190815260200160002081905550816000808573ffffffffffffffffffffffffffffffffffffffff1673ffffffffffffffffffffffffffffffffffffffff1681526020019081526020016000206000828254610b4d919061118d565b925050819055508273ffffffffffffffffffffffffffffffffffffffff168473ffffffffffffffffffffffffffffffffffffffff167fddf252ad1be2c89b69c2b068fc378daa952ba7f163c4a11628f55a4df523b3ef84604051610bb1919061113b565b60405180910390a3610bc4848484610bcf565b50505050565b505050565b505050565b600081359050610be38161130c565b92915050565b600081359050610bf881611323565b92915050565b600060208284031215610c1057600080fd5b6000610c1e84828501610bd4565b91505092915050565b60008060408385031215610c3a57600080fd5b6000610c4885828601610bd4565b9250506020610c5985828601610bd4565b9150509250929050565b600080600060608486031215610c7857600080fd5b6000610c8686828701610bd4565b9350506020610c9786828701610bd4565b9250506040610ca886828701610be9565b9150509250925092565b60008060408385031215610cc557600080fd5b6000610cd385828601610bd4565b9250506020610ce485828601610be9565b9150509250929050565b610cf7816111f5565b82525050565b6000610d0882611171565b610d12818561117c565b9350610d22818560208601611238565b610d2b816112fb565b840191505092915050565b6000610d4360238361117c565b91507f45524332303a207472616e7366657220746f20746865207a65726f206164647260008301527f65737300000000000000000000000000000000000000000000000000000000006020830152604082019050919050565b6000610da960228361117c565b91507f45524332303a20617070726f766520746f20746865207a65726f20616464726560008301527f73730000000000000000000000000000000000000000000000000000000000006020830152604082019050919050565b6000610e0f60268361117c565b91507f45524332303a207472616e7366657220616d6f756e742065786365656473206260008301527f616c616e636500000000000000000000000000000000000000000000000000006020830152604082019050919050565b6000610e7560288361117c565b91507f45524332303a207472616e7366657220616d6f756e742065786365656473206160008301527f6c6c6f77616e63650000000000000000000000000000000000000000000000006020830152604082019050919050565b6000610edb60258361117c565b91507f45524332303a207472616e736665722066726f6d20746865207a65726f20616460008301527f64726573730000000000000000000000000000000000000000000000000000006020830152604082019050919050565b6000610f4160248361117c565b91507f45524332303a20617070726f76652066726f6d20746865207a65726f2061646460008301527f72657373000000000000000000000000000000000000000000000000000000006020830152604082019050919050565b6000610fa760258361117c565b91507f45524332303a2064656372656173656420616c6c6f77616e63652062656c6f7760008301527f207a65726f0000000000000000000000000000000000000000000000000000006020830152604082019050919050565b61100981611221565b82525050565b6110188161122b565b82525050565b60006020820190506110336000830184610cee565b92915050565b600060208201905081810360008301526110538184610cfd565b905092915050565b6000602082019050818103600083015261107481610d36565b9050919050565b6000602082019050818103600083015261109481610d9c565b9050919050565b600060208201905081810360008301526110b481610e02565b9050919050565b600060208201905081810360008301526110d481610e68565b9050919050565b600060208201905081810360008301526110f481610ece565b9050919050565b6000602082019050818103600083015261111481610f34565b9050919050565b6000602082019050818103600083015261113481610f9a565b9050919050565b60006020820190506111506000830184611000565b92915050565b600060208201905061116b600083018461100f565b92915050565b600081519050919050565b600082825260208201905092915050565b600061119882611221565b91506111a383611221565b9250827fffffffffffffffffffffffffffffffffffffffffffffffffffffffffffffffff038211156111d8576111d761129d565b5b828201905092915050565b60006111ee82611201565b9050919050565b60008115159050919050565b600073ffffffffffffffffffffffffffffffffffffffff82169050919050565b6000819050919050565b600060ff82169050919050565b60005b8381101561125657808201518184015260208101905061123b565b83811115611265576000848401525b50505050565b6000600282049050600182168061128357607f821691505b60208210811415611297576112966112cc565b5b50919050565b7f4e487b7100000000000000000000000000000000000000000000000000000000600052601160045260246000fd5b7f4e487b7100000000000000000000000000000000000000000000000000000000600052602260045260246000fd5b6000601f19601f8301169050919050565b611315816111e3565b811461132057600080fd5b50565b61132c81611221565b811461133757600080fd5b5056fea2646970667358221220c623688a6c84fe4ee5dc86d3e393fc3911717287422b8b4043014fb870dc457264736f6c63430008000033",
  "immutableReferences": {},
  "source": "// SPDX-License-Identifier: MIT\r\npragma solidity ^0.8.0;\r\n\r\nimport \"@openzeppelin/contracts/token/ERC20/ERC20.sol\";\r\n\r\ncontract DummyToken is ERC20 {\r\n    uint public _totalSupply;\r\n    constructor (\r\n        string memory name,\r\n        string memory symbol,\r\n        uint totalSupply\r\n    ) ERC20 (name, symbol) {\r\n        require(totalSupply > 0, \"totalSupply must be greater than zero\");\r\n        _totalSupply = totalSupply;\r\n        _mint(msg.sender, _totalSupply);\r\n    }\r\n}\r\n\r\ncontract DummyICO {\r\n    struct Sales {\r\n        address investor;\r\n        uint quantity;\r\n    }\r\n    Sales[] public sales;\r\n    mapping (address => bool) public investors;\r\n    address public token;\r\n    address public admin;\r\n    uint public end;\r\n    uint public price;\r\n    uint public availableTokens;\r\n    uint public minPurchase;\r\n    uint public maxPurchase;\r\n    bool public released;\r\n\r\n    constructor \r\n    (\r\n        string memory _name,\r\n        string memory _symbol,\r\n        uint _totalSupply\r\n    )\r\n    {\r\n        token = address(new DummyToken(\r\n            _name,\r\n            _symbol,\r\n            _totalSupply\r\n        ));\r\n        admin = msg.sender;\r\n    }\r\n\r\n    function start\r\n    (\r\n        uint _duration,\r\n        uint _price,\r\n        uint _availableTokens,\r\n        uint _minPurchase,\r\n        uint _maxPurchase\r\n    ) \r\n        external\r\n        onlyAdmin()\r\n        notActive()\r\n        {\r\n            uint totalSupply = DummyToken(token).totalSupply();\r\n            require(_duration > 0, \"duration must be bigger than zero\");\r\n            require(_availableTokens > 0 && _availableTokens <= totalSupply, \"availabeTokens must be greater than zero and less than totalSupply\");\r\n            require(_minPurchase > 0, \"min purchase must be bigger than zero\");\r\n            require(_maxPurchase > 0 && _maxPurchase <= _availableTokens, \"max purchase must be bigger than zero but equal or less than availableTokens\");\r\n            end = _duration + block.timestamp;\r\n            price = _price;\r\n            availableTokens = _availableTokens;\r\n            minPurchase = _minPurchase;\r\n            maxPurchase = _maxPurchase;\r\n    }\r\n\r\n    function whitelist (address investor) \r\n        external \r\n        onlyAdmin()\r\n        {\r\n            investors[investor] = true;\r\n    }\r\n\r\n    function buy()\r\n        external\r\n        payable\r\n        notActive()\r\n        onlyInvestors()\r\n        {\r\n            require(msg.value % price == 0, \"have to send a multiple of price\");\r\n            require(msg.value >= maxPurchase, \"send at least the maxPurchase or higher\");\r\n            uint quantity = price * msg.value;\r\n            require(quantity <= availableTokens, \"have to be equal or less than availableTokens\");\r\n            sales.push(Sales(\r\n                msg.sender,\r\n                quantity\r\n            ));\r\n    }\r\n\r\n    function release() \r\n        external\r\n        onlyAdmin()\r\n        notActive(){\r\n            DummyToken tokenInstance = DummyToken(token);\r\n            for (uint i = 0; i < sales.length; i++) {\r\n                Sales storage sale = sales[i];\r\n                tokenInstance.transfer(sale.investor, sale.quantity);\r\n            }\r\n    }\r\n\r\n    function withdraw\r\n    (\r\n        address payable to,\r\n        uint amount\r\n    )\r\n        external\r\n        payable\r\n        onlyAdmin()\r\n        notActive()\r\n        tokenReleased()\r\n        {\r\n            payable(to).transfer(amount);\r\n    }\r\n        \r\n\r\n    modifier onlyAdmin() {\r\n        require(msg.sender == admin, \"only admin\");\r\n        _;\r\n    }\r\n\r\n    modifier notActive () {\r\n        require(end == 0, \"must be not active\");\r\n        _;\r\n    }\r\n\r\n    modifier active() {\r\n        require(end > 0 && block.timestamp < end && availableTokens > 0, \"must be acitve\");\r\n        _;\r\n    }\r\n\r\n    modifier onlyInvestors() {\r\n        require(investors[msg.sender] == true, \"only investor\");\r\n        _;\r\n    }\r\n\r\n    modifier tokenNotReleased() {\r\n        require(released == false, \"Token must not have been released\");\r\n        _;\r\n    }\r\n\r\n    modifier tokenReleased() {\r\n        require(released == true, \"Token must have been released\");\r\n        _;\r\n    }\r\n}",
  "sourcePath": "E:\\Coding\\Web3\\Web3 master\\DummyToken\\contracts\\DummyToken.sol",
  "compiler": {
    "name": "solc",
    "version": "0.8.0+commit.c7dfd78e.Emscripten.clang"
  },
  "schemaVersion": "3.4.16",
  "updatedAt": "2025-01-08T07:59:13.975Z",
  "devdoc": {
    "kind": "dev",
    "methods": {},
    "version": 1
  },
  "userdoc": {
    "kind": "user",
    "methods": {},
    "version": 1
  }
}