{
  "contractName": "ERC20Token",
  "abi": [
    {
      "inputs": [
        {
          "internalType": "string",
          "name": "_name",
          "type": "string"
        },
        {
          "internalType": "string",
          "name": "_symbol",
          "type": "string"
        },
        {
          "internalType": "uint8",
          "name": "_decimals",
          "type": "uint8"
        },
        {
          "internalType": "uint256",
          "name": "_totalSupply",
          "type": "uint256"
        }
      ],
      "stateMutability": "nonpayable",
      "type": "constructor"
    },
    {
      "anonymous": false,
      "inputs": [
        {
          "indexed": true,
          "internalType": "address",
          "name": "tokenOwner",
          "type": "address"
        },
        {
          "indexed": true,
          "internalType": "address",
          "name": "spender",
          "type": "address"
        },
        {
          "indexed": false,
          "internalType": "uint256",
          "name": "tokens",
          "type": "uint256"
        }
      ],
      "name": "Approval",
      "type": "event"
    },
    {
      "anonymous": false,
      "inputs": [
        {
          "indexed": true,
          "internalType": "address",
          "name": "from",
          "type": "address"
        },
        {
          "indexed": true,
          "internalType": "address",
          "name": "to",
          "type": "address"
        },
        {
          "indexed": false,
          "internalType": "uint256",
          "name": "tokens",
          "type": "uint256"
        }
      ],
      "name": "Transfer",
      "type": "event"
    },
    {
      "inputs": [
        {
          "internalType": "address",
          "name": "",
          "type": "address"
        },
        {
          "internalType": "address",
          "name": "",
          "type": "address"
        }
      ],
      "name": "allowed",
      "outputs": [
        {
          "internalType": "uint256",
          "name": "",
          "type": "uint256"
        }
      ],
      "stateMutability": "view",
      "type": "function"
    },
    {
      "inputs": [
        {
          "internalType": "address",
          "name": "",
          "type": "address"
        }
      ],
      "name": "balances",
      "outputs": [
        {
          "internalType": "uint256",
          "name": "",
          "type": "uint256"
        }
      ],
      "stateMutability": "view",
      "type": "function"
    },
    {
      "inputs": [],
      "name": "decimals",
      "outputs": [
        {
          "internalType": "uint8",
          "name": "",
          "type": "uint8"
        }
      ],
      "stateMutability": "view",
      "type": "function"
    },
    {
      "inputs": [],
      "name": "name",
      "outputs": [
        {
          "internalType": "string",
          "name": "",
          "type": "string"
        }
      ],
      "stateMutability": "view",
      "type": "function"
    },
    {
      "inputs": [],
      "name": "symbol",
      "outputs": [
        {
          "internalType": "string",
          "name": "",
          "type": "string"
        }
      ],
      "stateMutability": "view",
      "type": "function"
    },
    {
      "inputs": [],
      "name": "totalSupply",
      "outputs": [
        {
          "internalType": "uint256",
          "name": "",
          "type": "uint256"
        }
      ],
      "stateMutability": "view",
      "type": "function"
    },
    {
      "inputs": [
        {
          "internalType": "address",
          "name": "to",
          "type": "address"
        },
        {
          "internalType": "uint256",
          "name": "value",
          "type": "uint256"
        }
      ],
      "name": "transfer",
      "outputs": [
        {
          "internalType": "bool",
          "name": "",
          "type": "bool"
        }
      ],
      "stateMutability": "nonpayable",
      "type": "function"
    },
    {
      "inputs": [
        {
          "internalType": "address",
          "name": "from",
          "type": "address"
        },
        {
          "internalType": "address",
          "name": "to",
          "type": "address"
        },
        {
          "internalType": "uint256",
          "name": "value",
          "type": "uint256"
        }
      ],
      "name": "transferFrom",
      "outputs": [
        {
          "internalType": "bool",
          "name": "",
          "type": "bool"
        }
      ],
      "stateMutability": "nonpayable",
      "type": "function"
    },
    {
      "inputs": [
        {
          "internalType": "address",
          "name": "spender",
          "type": "address"
        },
        {
          "internalType": "uint256",
          "name": "value",
          "type": "uint256"
        }
      ],
      "name": "approve",
      "outputs": [
        {
          "internalType": "bool",
          "name": "",
          "type": "bool"
        }
      ],
      "stateMutability": "nonpayable",
      "type": "function"
    },
    {
      "inputs": [
        {
          "internalType": "address",
          "name": "owner",
          "type": "address"
        },
        {
          "internalType": "address",
          "name": "spender",
          "type": "address"
        }
      ],
      "name": "allowance",
      "outputs": [
        {
          "internalType": "uint256",
          "name": "",
          "type": "uint256"
        }
      ],
      "stateMutability": "view",
      "type": "function"
    },
    {
      "inputs": [
        {
          "internalType": "address",
          "name": "owner",
          "type": "address"
        }
      ],
      "name": "balanceOf",
      "outputs": [
        {
          "internalType": "uint256",
          "name": "",
          "type": "uint256"
        }
      ],
      "stateMutability": "view",
      "type": "function"
    }
  ],
  "bytecode": "0x608060405234801562000010575f80fd5b506040516200140b3803806200140b8339818101604052810190620000369190620002be565b835f908162000046919062000599565b50826001908162000058919062000599565b508160025f6101000a81548160ff021916908360ff160217905550806003819055508060045f3373ffffffffffffffffffffffffffffffffffffffff1673ffffffffffffffffffffffffffffffffffffffff1681526020019081526020015f2081905550505050506200067d565b5f604051905090565b5f80fd5b5f80fd5b5f80fd5b5f80fd5b5f601f19601f8301169050919050565b7f4e487b71000000000000000000000000000000000000000000000000000000005f52604160045260245ffd5b6200012782620000df565b810181811067ffffffffffffffff82111715620001495762000148620000ef565b5b80604052505050565b5f6200015d620000c6565b90506200016b82826200011c565b919050565b5f67ffffffffffffffff8211156200018d576200018c620000ef565b5b6200019882620000df565b9050602081019050919050565b5f5b83811015620001c4578082015181840152602081019050620001a7565b5f8484015250505050565b5f620001e5620001df8462000170565b62000152565b905082815260208101848484011115620002045762000203620000db565b5b62000211848285620001a5565b509392505050565b5f82601f83011262000230576200022f620000d7565b5b815162000242848260208601620001cf565b91505092915050565b5f60ff82169050919050565b62000262816200024b565b81146200026d575f80fd5b50565b5f81519050620002808162000257565b92915050565b5f819050919050565b6200029a8162000286565b8114620002a5575f80fd5b50565b5f81519050620002b8816200028f565b92915050565b5f805f8060808587031215620002d957620002d8620000cf565b5b5f85015167ffffffffffffffff811115620002f957620002f8620000d3565b5b620003078782880162000219565b945050602085015167ffffffffffffffff8111156200032b576200032a620000d3565b5b620003398782880162000219565b93505060406200034c8782880162000270565b92505060606200035f87828801620002a8565b91505092959194509250565b5f81519050919050565b7f4e487b71000000000000000000000000000000000000000000000000000000005f52602260045260245ffd5b5f6002820490506001821680620003ba57607f821691505b602082108103620003d057620003cf62000375565b5b50919050565b5f819050815f5260205f209050919050565b5f6020601f8301049050919050565b5f82821b905092915050565b5f60088302620004347fffffffffffffffffffffffffffffffffffffffffffffffffffffffffffffffff82620003f7565b620004408683620003f7565b95508019841693508086168417925050509392505050565b5f819050919050565b5f620004816200047b620004758462000286565b62000458565b62000286565b9050919050565b5f819050919050565b6200049c8362000461565b620004b4620004ab8262000488565b84845462000403565b825550505050565b5f90565b620004ca620004bc565b620004d781848462000491565b505050565b5b81811015620004fe57620004f25f82620004c0565b600181019050620004dd565b5050565b601f8211156200054d576200051781620003d6565b6200052284620003e8565b8101602085101562000532578190505b6200054a6200054185620003e8565b830182620004dc565b50505b505050565b5f82821c905092915050565b5f6200056f5f198460080262000552565b1980831691505092915050565b5f6200058983836200055e565b9150826002028217905092915050565b620005a4826200036b565b67ffffffffffffffff811115620005c057620005bf620000ef565b5b620005cc8254620003a2565b620005d982828562000502565b5f60209050601f8311600181146200060f575f8415620005fa578287015190505b6200060685826200057c565b86555062000675565b601f1984166200061f86620003d6565b5f5b82811015620006485784890151825560018201915060208501945060208101905062000621565b8683101562000668578489015162000664601f8916826200055e565b8355505b6001600288020188555050505b505050505050565b610d80806200068b5f395ff3fe608060405234801561000f575f80fd5b50600436106100a7575f3560e01c8063313ce5671161006f578063313ce567146101775780635c6581651461019557806370a08231146101c557806395d89b41146101f5578063a9059cbb14610213578063dd62ed3e14610243576100a7565b806306fdde03146100ab578063095ea7b3146100c957806318160ddd146100f957806323b872dd1461011757806327e235e314610147575b5f80fd5b6100b3610273565b6040516100c09190610a23565b60405180910390f35b6100e360048036038101906100de9190610ad4565b6102fe565b6040516100f09190610b2c565b60405180910390f35b610101610422565b60405161010e9190610b54565b60405180910390f35b610131600480360381019061012c9190610b6d565b610428565b60405161013e9190610b2c565b60405180910390f35b610161600480360381019061015c9190610bbd565b61069f565b60405161016e9190610b54565b60405180910390f35b61017f6106b4565b60405161018c9190610c03565b60405180910390f35b6101af60048036038101906101aa9190610c1c565b6106c6565b6040516101bc9190610b54565b60405180910390f35b6101df60048036038101906101da9190610bbd565b6106e6565b6040516101ec9190610b54565b60405180910390f35b6101fd61072c565b60405161020a9190610a23565b60405180910390f35b61022d60048036038101906102289190610ad4565b6107b8565b60405161023a9190610b2c565b60405180910390f35b61025d60048036038101906102589190610c1c565b610917565b60405161026a9190610b54565b60405180910390f35b5f805461027f90610c87565b80601f01602080910402602001604051908101604052809291908181526020018280546102ab90610c87565b80156102f65780601f106102cd576101008083540402835291602001916102f6565b820191905f5260205f20905b8154815290600101906020018083116102d957829003601f168201915b505050505081565b5f3373ffffffffffffffffffffffffffffffffffffffff168373ffffffffffffffffffffffffffffffffffffffff1603610336575f80fd5b8160055f3373ffffffffffffffffffffffffffffffffffffffff1673ffffffffffffffffffffffffffffffffffffffff1681526020019081526020015f205f8573ffffffffffffffffffffffffffffffffffffffff1673ffffffffffffffffffffffffffffffffffffffff1681526020019081526020015f20819055508273ffffffffffffffffffffffffffffffffffffffff163373ffffffffffffffffffffffffffffffffffffffff167f8c5be1e5ebec7d5bd14f71427d1e84f3dd0314c0f7b2291e5b200ac8c7c3b925846040516104109190610b54565b60405180910390a36001905092915050565b60035481565b5f8060055f8673ffffffffffffffffffffffffffffffffffffffff1673ffffffffffffffffffffffffffffffffffffffff1681526020019081526020015f205f3373ffffffffffffffffffffffffffffffffffffffff1673ffffffffffffffffffffffffffffffffffffffff1681526020019081526020015f205490508260045f3373ffffffffffffffffffffffffffffffffffffffff1673ffffffffffffffffffffffffffffffffffffffff1681526020019081526020015f2054101580156104f25750828110155b6104fa575f80fd5b8260055f8773ffffffffffffffffffffffffffffffffffffffff1673ffffffffffffffffffffffffffffffffffffffff1681526020019081526020015f205f3373ffffffffffffffffffffffffffffffffffffffff1673ffffffffffffffffffffffffffffffffffffffff1681526020019081526020015f205f8282546105819190610ce4565b925050819055508260045f3373ffffffffffffffffffffffffffffffffffffffff1673ffffffffffffffffffffffffffffffffffffffff1681526020019081526020015f205f8282546105d49190610ce4565b925050819055508260045f8673ffffffffffffffffffffffffffffffffffffffff1673ffffffffffffffffffffffffffffffffffffffff1681526020019081526020015f205f8282546106279190610d17565b925050819055508373ffffffffffffffffffffffffffffffffffffffff163373ffffffffffffffffffffffffffffffffffffffff167fddf252ad1be2c89b69c2b068fc378daa952ba7f163c4a11628f55a4df523b3ef8560405161068b9190610b54565b60405180910390a360019150509392505050565b6004602052805f5260405f205f915090505481565b60025f9054906101000a900460ff1681565b6005602052815f5260405f20602052805f5260405f205f91509150505481565b5f60045f8373ffffffffffffffffffffffffffffffffffffffff1673ffffffffffffffffffffffffffffffffffffffff1681526020019081526020015f20549050919050565b6001805461073990610c87565b80601f016020809104026020016040519081016040528092919081815260200182805461076590610c87565b80156107b05780601f10610787576101008083540402835291602001916107b0565b820191905f5260205f20905b81548152906001019060200180831161079357829003601f168201915b505050505081565b5f8160045f3373ffffffffffffffffffffffffffffffffffffffff1673ffffffffffffffffffffffffffffffffffffffff1681526020019081526020015f20541015610802575f80fd5b8160045f3373ffffffffffffffffffffffffffffffffffffffff1673ffffffffffffffffffffffffffffffffffffffff1681526020019081526020015f205f82825461084e9190610ce4565b925050819055508160045f8573ffffffffffffffffffffffffffffffffffffffff1673ffffffffffffffffffffffffffffffffffffffff1681526020019081526020015f205f8282546108a19190610d17565b925050819055508273ffffffffffffffffffffffffffffffffffffffff163373ffffffffffffffffffffffffffffffffffffffff167fddf252ad1be2c89b69c2b068fc378daa952ba7f163c4a11628f55a4df523b3ef846040516109059190610b54565b60405180910390a36001905092915050565b5f60055f8473ffffffffffffffffffffffffffffffffffffffff1673ffffffffffffffffffffffffffffffffffffffff1681526020019081526020015f205f8373ffffffffffffffffffffffffffffffffffffffff1673ffffffffffffffffffffffffffffffffffffffff1681526020019081526020015f2054905092915050565b5f81519050919050565b5f82825260208201905092915050565b5f5b838110156109d05780820151818401526020810190506109b5565b5f8484015250505050565b5f601f19601f8301169050919050565b5f6109f582610999565b6109ff81856109a3565b9350610a0f8185602086016109b3565b610a18816109db565b840191505092915050565b5f6020820190508181035f830152610a3b81846109eb565b905092915050565b5f80fd5b5f73ffffffffffffffffffffffffffffffffffffffff82169050919050565b5f610a7082610a47565b9050919050565b610a8081610a66565b8114610a8a575f80fd5b50565b5f81359050610a9b81610a77565b92915050565b5f819050919050565b610ab381610aa1565b8114610abd575f80fd5b50565b5f81359050610ace81610aaa565b92915050565b5f8060408385031215610aea57610ae9610a43565b5b5f610af785828601610a8d565b9250506020610b0885828601610ac0565b9150509250929050565b5f8115159050919050565b610b2681610b12565b82525050565b5f602082019050610b3f5f830184610b1d565b92915050565b610b4e81610aa1565b82525050565b5f602082019050610b675f830184610b45565b92915050565b5f805f60608486031215610b8457610b83610a43565b5b5f610b9186828701610a8d565b9350506020610ba286828701610a8d565b9250506040610bb386828701610ac0565b9150509250925092565b5f60208284031215610bd257610bd1610a43565b5b5f610bdf84828501610a8d565b91505092915050565b5f60ff82169050919050565b610bfd81610be8565b82525050565b5f602082019050610c165f830184610bf4565b92915050565b5f8060408385031215610c3257610c31610a43565b5b5f610c3f85828601610a8d565b9250506020610c5085828601610a8d565b9150509250929050565b7f4e487b71000000000000000000000000000000000000000000000000000000005f52602260045260245ffd5b5f6002820490506001821680610c9e57607f821691505b602082108103610cb157610cb0610c5a565b5b50919050565b7f4e487b71000000000000000000000000000000000000000000000000000000005f52601160045260245ffd5b5f610cee82610aa1565b9150610cf983610aa1565b9250828203905081811115610d1157610d10610cb7565b5b92915050565b5f610d2182610aa1565b9150610d2c83610aa1565b9250828201905080821115610d4457610d43610cb7565b5b9291505056fea2646970667358221220f75e316af2d13a907622e43291736f2954f644e146e47c568d493864d8c9851064736f6c63430008140033",
  "immutableReferences": {},
  "source": "// SPDX-License-Identifier: MIT\r\npragma solidity >= 0.8.0;\r\n\r\ninterface ERC20Interface {\r\n    function transfer(address to, uint tokens) external returns (bool success);\r\n    function transferFrom(address from, address to, uint tokens) external returns (bool success);\r\n    function balanceOf(address tokenOwner) external view returns (uint balance);\r\n    function approve(address spender, uint tokens) external returns (bool success);\r\n    function allowance(address tokenOwner, address spender) external view returns (uint remaining);\r\n    function totalSupply() external view returns (uint);\r\n\r\n    event Transfer(address indexed from, address indexed to, uint tokens);\r\n    event Approval(address indexed tokenOwner, address indexed spender, uint tokens);\r\n}\r\n\r\ncontract ERC20Token is ERC20Interface {\r\n    string public name;\r\n    string public symbol;\r\n    uint8 public decimals;\r\n    uint public totalSupply;\r\n    mapping(address => uint) public balances;\r\n    mapping(address => mapping(address => uint)) public allowed;\r\n    \r\n    constructor(\r\n        string memory _name,\r\n        string memory _symbol,\r\n        uint8 _decimals,\r\n        uint _totalSupply)\r\n        {\r\n            name = _name;\r\n            symbol = _symbol;\r\n            decimals = _decimals;\r\n            totalSupply = _totalSupply;\r\n            balances[msg.sender] = _totalSupply;\r\n        }\r\n        \r\n    function transfer(address to, uint value) public returns(bool) {\r\n        require(balances[msg.sender] >= value);\r\n        balances[msg.sender] -= value;\r\n        balances[to] += value;\r\n        emit Transfer(msg.sender, to, value);\r\n        return true;\r\n    }\r\n    \r\n    function transferFrom(address from, address to, uint value) public returns(bool) {\r\n        uint allowanceFrom = allowed[from][msg.sender];\r\n        require(balances[msg.sender] >= value && allowanceFrom >= value);\r\n        allowed[from][msg.sender] -= value;\r\n        balances[msg.sender] -= value;\r\n        balances[to] += value;\r\n        emit Transfer(msg.sender, to, value);\r\n        return true;\r\n    }\r\n    \r\n    function approve(address spender, uint value) public returns(bool) {\r\n        require(spender != msg.sender);\r\n        allowed[msg.sender][spender] = value;\r\n        emit Approval(msg.sender, spender, value);\r\n        return true;\r\n    }\r\n    \r\n    function allowance(address owner, address spender) public view returns(uint) {\r\n        return allowed[owner][spender];\r\n    }\r\n    \r\n    function balanceOf(address owner) public view returns(uint) {\r\n        return balances[owner];\r\n    }\r\n    \r\n}\r\n",
  "sourcePath": "E:\\Coding\\Web3\\Web3 master\\DummyToken\\contracts\\DummyToken.sol",
  "compiler": {
    "name": "solc",
    "version": "0.8.20+commit.a1b79de6.Emscripten.clang"
  },
  "schemaVersion": "3.4.16",
  "updatedAt": "2025-01-07T09:27:12.647Z",
  "devdoc": {
    "kind": "dev",
    "methods": {},
    "version": 1
  },
  "userdoc": {
    "kind": "user",
    "methods": {},
    "version": 1
  }
}